{
  "contractName": "EdgeHealthCare",
  "abi": [
    {
      "inputs": [],
      "payable": false,
      "stateMutability": "nonpayable",
      "type": "constructor"
    },
    {
      "constant": false,
      "inputs": [
        {
          "internalType": "uint256",
          "name": "_encSysPressure",
          "type": "uint256"
        },
        {
          "internalType": "uint256",
          "name": "_encDiaPressure",
          "type": "uint256"
        },
        {
          "internalType": "uint256",
          "name": "_encMap",
          "type": "uint256"
        },
        {
          "internalType": "uint256",
          "name": "_sysPressure",
          "type": "uint256"
        },
        {
          "internalType": "uint256",
          "name": "_diaPressure",
          "type": "uint256"
        },
        {
          "internalType": "uint256",
          "name": "_map",
          "type": "uint256"
        },
        {
          "internalType": "string",
          "name": "_result",
          "type": "string"
        }
      ],
      "name": "addData",
      "outputs": [],
      "payable": false,
      "stateMutability": "nonpayable",
      "type": "function"
    },
    {
      "constant": false,
      "inputs": [],
      "name": "registerResearcher",
      "outputs": [
        {
          "internalType": "bool",
          "name": "",
          "type": "bool"
        }
      ],
      "payable": false,
      "stateMutability": "nonpayable",
      "type": "function"
    },
    {
      "constant": true,
      "inputs": [],
      "name": "returnAllData",
      "outputs": [
        {
          "internalType": "contract PatientData[]",
          "name": "",
          "type": "address[]"
        }
      ],
      "payable": false,
      "stateMutability": "view",
      "type": "function"
    },
    {
      "constant": true,
      "inputs": [],
      "name": "getPatientData",
      "outputs": [
        {
          "internalType": "contract PatientData[]",
          "name": "",
          "type": "address[]"
        }
      ],
      "payable": false,
      "stateMutability": "view",
      "type": "function"
    },
    {
      "constant": false,
      "inputs": [],
      "name": "display",
      "outputs": [
        {
          "internalType": "string",
          "name": "",
          "type": "string"
        }
      ],
      "payable": false,
      "stateMutability": "nonpayable",
      "type": "function"
    }
  ],
  "bytecode": "0x608060405234801561001057600080fd5b50611088806100206000396000f3fe608060405234801561001057600080fd5b50600436106100575760003560e01c80630c1b7c1e1461005c57806332c4bb89146100df5780634344b743146101015780634d5c68b3146101605780637cca123114610257575b600080fd5b6100646102b6565b6040518080602001828103825283818151815260200191508051906020019080838360005b838110156100a4578082015181840152602081019050610089565b50505050905090810190601f1680156100d15780820380516001836020036101000a031916815260200191505b509250505060405180910390f35b6100e76102f3565b604051808215151515815260200191505060405180910390f35b61010961039f565b6040518080602001828103825283818151815260200191508051906020019060200280838360005b8381101561014c578082015181840152602081019050610131565b505050509050019250505060405180910390f35b610255600480360360e081101561017657600080fd5b81019080803590602001909291908035906020019092919080359060200190929190803590602001909291908035906020019092919080359060200190929190803590602001906401000000008111156101cf57600080fd5b8201836020820111156101e157600080fd5b8035906020019184600183028401116401000000008311171561020357600080fd5b91908080601f016020809104026020016040519081016040528093929190818152602001838380828437600081840152601f19601f82011690508083019250505050505050919291929050505061046a565b005b61025f61067e565b6040518080602001828103825283818151815260200191508051906020019060200280838360005b838110156102a2578082015181840152602081019050610287565b505050509050019250505060405180910390f35b60606040518060400160405280600e81526020017f48656c6c6f20536f6c6964697479000000000000000000000000000000000000815250905090565b60006001600360003373ffffffffffffffffffffffffffffffffffffffff1673ffffffffffffffffffffffffffffffffffffffff16815260200190815260200160002060006101000a81548160ff021916908315150217905550600360003373ffffffffffffffffffffffffffffffffffffffff1673ffffffffffffffffffffffffffffffffffffffff16815260200190815260200160002060009054906101000a900460ff16905090565b6060600460003373ffffffffffffffffffffffffffffffffffffffff1673ffffffffffffffffffffffffffffffffffffffff16815260200190815260200160002080548060200260200160405190810160405280929190818152602001828054801561046057602002820191906000526020600020905b8160009054906101000a900473ffffffffffffffffffffffffffffffffffffffff1673ffffffffffffffffffffffffffffffffffffffff1681526020019060010190808311610416575b5050505050905090565b60003388888888888888604051610480906107ed565b808973ffffffffffffffffffffffffffffffffffffffff1673ffffffffffffffffffffffffffffffffffffffff16815260200188815260200187815260200186815260200185815260200184815260200183815260200180602001828103825283818151815260200191508051906020019080838360005b838110156105135780820151818401526020810190506104f8565b50505050905090810190601f1680156105405780820380516001836020036101000a031916815260200191505b509950505050505050505050604051809103906000f080158015610568573d6000803e3d6000fd5b50905060018190806001815401808255809150509060018203906000526020600020016000909192909190916101000a81548173ffffffffffffffffffffffffffffffffffffffff021916908373ffffffffffffffffffffffffffffffffffffffff16021790555050600460003373ffffffffffffffffffffffffffffffffffffffff1673ffffffffffffffffffffffffffffffffffffffff1681526020019081526020016000208190806001815401808255809150509060018203906000526020600020016000909192909190916101000a81548173ffffffffffffffffffffffffffffffffffffffff021916908373ffffffffffffffffffffffffffffffffffffffff160217905550505050505050505050565b6060600360003373ffffffffffffffffffffffffffffffffffffffff1673ffffffffffffffffffffffffffffffffffffffff16815260200190815260200160002060009054906101000a900460ff161561076057600180548060200260200160405190810160405280929190818152602001828054801561075457602002820191906000526020600020905b8160009054906101000a900473ffffffffffffffffffffffffffffffffffffffff1673ffffffffffffffffffffffffffffffffffffffff168152602001906001019080831161070a575b505050505090506107ea565b60018054806020026020016040519081016040528092919081815260200182805480156107e257602002820191906000526020600020905b8160009054906101000a900473ffffffffffffffffffffffffffffffffffffffff1673ffffffffffffffffffffffffffffffffffffffff1681526020019060010190808311610798575b505050505090505b90565b610859806107fb8339019056fe608060405234801561001057600080fd5b50604051610859380380610859833981810160405261010081101561003457600080fd5b81019080805190602001909291908051906020019092919080519060200190929190805190602001909291908051906020019092919080519060200190929190805190602001909291908051604051939291908464010000000082111561009a57600080fd5b838201915060208201858111156100b057600080fd5b82518660018202830111640100000000821117156100cd57600080fd5b8083526020830192505050908051906020019080838360005b838110156101015780820151818401526020810190506100e6565b50505050905090810190601f16801561012e5780820380516001836020036101000a031916815260200191505b50604052505050876000806101000a81548173ffffffffffffffffffffffffffffffffffffffff021916908373ffffffffffffffffffffffffffffffffffffffff16021790555086600181905550856002819055508460038190555083600481905550826005819055508160068190555080600790805190602001906101b59291906101c3565b505050505050505050610268565b828054600181600116156101000203166002900490600052602060002090601f016020900481019282601f1061020457805160ff1916838001178555610232565b82800160010185558215610232579182015b82811115610231578251825591602001919060010190610216565b5b50905061023f9190610243565b5090565b61026591905b80821115610261576000816000905550600101610249565b5090565b90565b6105e2806102776000396000f3fe608060405234801561001057600080fd5b506004361061009e5760003560e01c80636d04e077116100665780636d04e0771461019e57806377724399146102365780639a8014a014610254578063bd96bd20146102ec578063c7581184146103365761009e565b80634673f746146100a35780634bf049cc146100c15780634e9cfd66146100df57806353f3e947146100fd578063653721471461011b575b600080fd5b6100ab610354565b6040518082815260200191505060405180910390f35b6100c961035a565b6040518082815260200191505060405180910390f35b6100e7610360565b6040518082815260200191505060405180910390f35b610105610366565b6040518082815260200191505060405180910390f35b61012361036c565b6040518080602001828103825283818151815260200191508051906020019080838360005b83811015610163578082015181840152602081019050610148565b50505050905090810190601f1680156101905780820380516001836020036101000a031916815260200191505b509250505060405180910390f35b6101a661040a565b6040518085815260200184815260200183815260200180602001828103825283818151815260200191508051906020019080838360005b838110156101f85780820151818401526020810190506101dd565b50505050905090810190601f1680156102255780820380516001836020036101000a031916815260200191505b509550505050505060405180910390f35b61023e6104c3565b6040518082815260200191505060405180910390f35b61025c6104c9565b6040518085815260200184815260200183815260200180602001828103825283818151815260200191508051906020019080838360005b838110156102ae578082015181840152602081019050610293565b50505050905090810190601f1680156102db5780820380516001836020036101000a031916815260200191505b509550505050505060405180910390f35b6102f4610582565b604051808273ffffffffffffffffffffffffffffffffffffffff1673ffffffffffffffffffffffffffffffffffffffff16815260200191505060405180910390f35b61033e6105a7565b6040518082815260200191505060405180910390f35b60045481565b60015481565b60025481565b60035481565b60078054600181600116156101000203166002900480601f0160208091040260200160405190810160405280929190818152602001828054600181600116156101000203166002900480156104025780601f106103d757610100808354040283529160200191610402565b820191906000526020600020905b8154815290600101906020018083116103e557829003601f168201915b505050505081565b6000806000606060045493506005549250600654915060078054600181600116156101000203166002900480601f0160208091040260200160405190810160405280929190818152602001828054600181600116156101000203166002900480156104b65780601f1061048b576101008083540402835291602001916104b6565b820191906000526020600020905b81548152906001019060200180831161049957829003601f168201915b5050505050905090919293565b60055481565b6000806000606060015493506002549250600354915060078054600181600116156101000203166002900480601f0160208091040260200160405190810160405280929190818152602001828054600181600116156101000203166002900480156105755780601f1061054a57610100808354040283529160200191610575565b820191906000526020600020905b81548152906001019060200180831161055857829003601f168201915b5050505050905090919293565b6000809054906101000a900473ffffffffffffffffffffffffffffffffffffffff1681565b6006548156fea265627a7a72315820db31b6e609ae98262e5f0fd371293f4996bf4701fa1e883fbb11e974dbdabbb364736f6c63430005100032a265627a7a723158209a75e869e5a8f7e5078b21d92cb174f3f5b068024c600b212ed99dd5577c81d764736f6c63430005100032",
  "source": "pragma solidity ^0.5.16;\r\nimport \"./Set.sol\";\r\nimport \"./PatientData.sol\";\r\n\r\n\r\ncontract EdgeHealthCare {\r\n    Set.Data researcherSet;\r\n    PatientData[] private patientData;\r\n    PatientData[] private nullData;\r\n\r\n    mapping(address => bool) rSet;\r\n\r\n    //mapping(address => Set.Data) patientSpecificData;\r\n    mapping(address => PatientData[]) patientSpecificData;\r\n\r\n    constructor() public {}\r\n\r\n    //Add a data from one instance to the patientData Array\r\n    function addData(\r\n        uint  _encSysPressure, uint  _encDiaPressure,\r\n        uint  _encMap, uint  _sysPressure,\r\n        uint  _diaPressure, uint  _map,\r\n        string memory  _result\r\n    ) public {\r\n        PatientData newPatient = new PatientData(msg.sender, _encSysPressure, _encDiaPressure, _encMap,\r\n                                             _sysPressure, _diaPressure, _map, _result);\r\n        patientData.push(newPatient);\r\n        \r\n\r\n        //Set.insert(patientSpecificData[msg.sender], address(newPatient));\r\n        patientSpecificData[msg.sender].push(newPatient);\r\n    }\r\n\r\n    /*\r\n    function isResearcher() external returns(bool){\r\n        return Set.contains(researcherSet, msg.sender);\r\n    }\r\n\r\n    function registerResearcher() external returns(bool){\r\n        //require(!Set.contains(researcherSet, msg.sender));\r\n        if(!Set.contains(researcherSet, msg.sender)){\r\n            Set.insert(researcherSet, msg.sender);\r\n            return true;\r\n        }\r\n        return false;\r\n    }\r\n\r\n    function returnAllData() external view returns(PatientData[] memory){\r\n        if(Set.contains(researcherSet, msg.sender))\r\n            return patientData;\r\n        else\r\n            return nullData;\r\n    }\r\n    */\r\n\r\n    function registerResearcher() external returns(bool){\r\n        rSet[msg.sender] = true;\r\n        return rSet[msg.sender];\r\n    }\r\n    \r\n    function returnAllData() external view returns(PatientData[] memory){\r\n        if(rSet[msg.sender])\r\n            return patientData;\r\n        else\r\n            return patientData;\r\n    }\r\n\r\n    function getPatientData() external view returns(PatientData[] memory){\r\n        return patientSpecificData[msg.sender];\r\n    }\r\n\r\n    function display() external returns(string memory){\r\n        return \"Hello Solidity\";\r\n    }\r\n}\r\n\r\n/*\r\n    returnAllData\r\n    addData\r\n    RegisterResearcher\r\n\r\n\r\n    emitter for researcher / eventLog\r\n    Mapping patiend address : data address\r\n    patient 1 : N Data -- \r\n*/\r\n\r\n/*\r\n    Since the addresses don't store the object as a whole, we use mapping\r\n    uint and address don't differ much in space complexity \r\n    Just constant increase/decrease;\r\n\r\n    Researcher click, update events \r\n*/",
  "sourcePath": "C:/Users/roshini/Desktop/Edge-Healthcare/Blockchain/contracts/EdgeHealthCare.sol",
  "compiler": {
    "name": "solc",
    "version": "0.5.16+commit.9c3226ce.Emscripten.clang"
  },
  "schemaVersion": "3.3.3",
  "updatedAt": "2021-03-10T06:02:36.935Z",
  "networkType": "ethereum",
  "devdoc": {
    "methods": {}
  },
  "userdoc": {
    "methods": {}
  }
}