{
  "contractName": "PatientData",
  "abi": [
    {
      "inputs": [
        {
          "internalType": "address",
          "name": "_patient",
          "type": "address"
        },
        {
          "internalType": "uint256",
          "name": "_encSysPressure",
          "type": "uint256"
        },
        {
          "internalType": "uint256",
          "name": "_encDiaPressure",
          "type": "uint256"
        },
        {
          "internalType": "uint256",
          "name": "_encMap",
          "type": "uint256"
        },
        {
          "internalType": "uint256",
          "name": "_sysPressure",
          "type": "uint256"
        },
        {
          "internalType": "uint256",
          "name": "_diaPressure",
          "type": "uint256"
        },
        {
          "internalType": "uint256",
          "name": "_map",
          "type": "uint256"
        },
        {
          "internalType": "string",
          "name": "_result",
          "type": "string"
        }
      ],
      "payable": false,
      "stateMutability": "nonpayable",
      "type": "constructor"
    },
    {
      "constant": true,
      "inputs": [],
      "name": "diaPressure",
      "outputs": [
        {
          "internalType": "uint256",
          "name": "",
          "type": "uint256"
        }
      ],
      "payable": false,
      "stateMutability": "view",
      "type": "function"
    },
    {
      "constant": true,
      "inputs": [],
      "name": "encDiaPressure",
      "outputs": [
        {
          "internalType": "uint256",
          "name": "",
          "type": "uint256"
        }
      ],
      "payable": false,
      "stateMutability": "view",
      "type": "function"
    },
    {
      "constant": true,
      "inputs": [],
      "name": "encMap",
      "outputs": [
        {
          "internalType": "uint256",
          "name": "",
          "type": "uint256"
        }
      ],
      "payable": false,
      "stateMutability": "view",
      "type": "function"
    },
    {
      "constant": true,
      "inputs": [],
      "name": "encSysPressure",
      "outputs": [
        {
          "internalType": "uint256",
          "name": "",
          "type": "uint256"
        }
      ],
      "payable": false,
      "stateMutability": "view",
      "type": "function"
    },
    {
      "constant": true,
      "inputs": [],
      "name": "map",
      "outputs": [
        {
          "internalType": "uint256",
          "name": "",
          "type": "uint256"
        }
      ],
      "payable": false,
      "stateMutability": "view",
      "type": "function"
    },
    {
      "constant": true,
      "inputs": [],
      "name": "patient",
      "outputs": [
        {
          "internalType": "address",
          "name": "",
          "type": "address"
        }
      ],
      "payable": false,
      "stateMutability": "view",
      "type": "function"
    },
    {
      "constant": true,
      "inputs": [],
      "name": "result",
      "outputs": [
        {
          "internalType": "string",
          "name": "",
          "type": "string"
        }
      ],
      "payable": false,
      "stateMutability": "view",
      "type": "function"
    },
    {
      "constant": true,
      "inputs": [],
      "name": "sysPressure",
      "outputs": [
        {
          "internalType": "uint256",
          "name": "",
          "type": "uint256"
        }
      ],
      "payable": false,
      "stateMutability": "view",
      "type": "function"
    },
    {
      "constant": false,
      "inputs": [],
      "name": "getDetailsPatient",
      "outputs": [
        {
          "internalType": "uint256",
          "name": "SysPressure",
          "type": "uint256"
        },
        {
          "internalType": "uint256",
          "name": "DiaPressure",
          "type": "uint256"
        },
        {
          "internalType": "uint256",
          "name": "Map",
          "type": "uint256"
        },
        {
          "internalType": "string",
          "name": "Result",
          "type": "string"
        }
      ],
      "payable": false,
      "stateMutability": "nonpayable",
      "type": "function"
    },
    {
      "constant": false,
      "inputs": [],
      "name": "getDetailsResearcher",
      "outputs": [
        {
          "internalType": "uint256",
          "name": "EncSysPressure",
          "type": "uint256"
        },
        {
          "internalType": "uint256",
          "name": "EncDiaPressure",
          "type": "uint256"
        },
        {
          "internalType": "uint256",
          "name": "EncMap",
          "type": "uint256"
        },
        {
          "internalType": "string",
          "name": "Result",
          "type": "string"
        }
      ],
      "payable": false,
      "stateMutability": "nonpayable",
      "type": "function"
    }
  ],
  "bytecode": "0x608060405234801561001057600080fd5b50604051610859380380610859833981810160405261010081101561003457600080fd5b81019080805190602001909291908051906020019092919080519060200190929190805190602001909291908051906020019092919080519060200190929190805190602001909291908051604051939291908464010000000082111561009a57600080fd5b838201915060208201858111156100b057600080fd5b82518660018202830111640100000000821117156100cd57600080fd5b8083526020830192505050908051906020019080838360005b838110156101015780820151818401526020810190506100e6565b50505050905090810190601f16801561012e5780820380516001836020036101000a031916815260200191505b50604052505050876000806101000a81548173ffffffffffffffffffffffffffffffffffffffff021916908373ffffffffffffffffffffffffffffffffffffffff16021790555086600181905550856002819055508460038190555083600481905550826005819055508160068190555080600790805190602001906101b59291906101c3565b505050505050505050610268565b828054600181600116156101000203166002900490600052602060002090601f016020900481019282601f1061020457805160ff1916838001178555610232565b82800160010185558215610232579182015b82811115610231578251825591602001919060010190610216565b5b50905061023f9190610243565b5090565b61026591905b80821115610261576000816000905550600101610249565b5090565b90565b6105e2806102776000396000f3fe608060405234801561001057600080fd5b506004361061009e5760003560e01c80636d04e077116100665780636d04e0771461019e57806377724399146102365780639a8014a014610254578063bd96bd20146102ec578063c7581184146103365761009e565b80634673f746146100a35780634bf049cc146100c15780634e9cfd66146100df57806353f3e947146100fd578063653721471461011b575b600080fd5b6100ab610354565b6040518082815260200191505060405180910390f35b6100c961035a565b6040518082815260200191505060405180910390f35b6100e7610360565b6040518082815260200191505060405180910390f35b610105610366565b6040518082815260200191505060405180910390f35b61012361036c565b6040518080602001828103825283818151815260200191508051906020019080838360005b83811015610163578082015181840152602081019050610148565b50505050905090810190601f1680156101905780820380516001836020036101000a031916815260200191505b509250505060405180910390f35b6101a661040a565b6040518085815260200184815260200183815260200180602001828103825283818151815260200191508051906020019080838360005b838110156101f85780820151818401526020810190506101dd565b50505050905090810190601f1680156102255780820380516001836020036101000a031916815260200191505b509550505050505060405180910390f35b61023e6104c3565b6040518082815260200191505060405180910390f35b61025c6104c9565b6040518085815260200184815260200183815260200180602001828103825283818151815260200191508051906020019080838360005b838110156102ae578082015181840152602081019050610293565b50505050905090810190601f1680156102db5780820380516001836020036101000a031916815260200191505b509550505050505060405180910390f35b6102f4610582565b604051808273ffffffffffffffffffffffffffffffffffffffff1673ffffffffffffffffffffffffffffffffffffffff16815260200191505060405180910390f35b61033e6105a7565b6040518082815260200191505060405180910390f35b60045481565b60015481565b60025481565b60035481565b60078054600181600116156101000203166002900480601f0160208091040260200160405190810160405280929190818152602001828054600181600116156101000203166002900480156104025780601f106103d757610100808354040283529160200191610402565b820191906000526020600020905b8154815290600101906020018083116103e557829003601f168201915b505050505081565b6000806000606060045493506005549250600654915060078054600181600116156101000203166002900480601f0160208091040260200160405190810160405280929190818152602001828054600181600116156101000203166002900480156104b65780601f1061048b576101008083540402835291602001916104b6565b820191906000526020600020905b81548152906001019060200180831161049957829003601f168201915b5050505050905090919293565b60055481565b6000806000606060015493506002549250600354915060078054600181600116156101000203166002900480601f0160208091040260200160405190810160405280929190818152602001828054600181600116156101000203166002900480156105755780601f1061054a57610100808354040283529160200191610575565b820191906000526020600020905b81548152906001019060200180831161055857829003601f168201915b5050505050905090919293565b6000809054906101000a900473ffffffffffffffffffffffffffffffffffffffff1681565b6006548156fea265627a7a72315820db31b6e609ae98262e5f0fd371293f4996bf4701fa1e883fbb11e974dbdabbb364736f6c63430005100032",
  "source": "pragma solidity ^0.5.16;\r\n\r\ncontract PatientData{\r\n    address public patient;\r\n    uint public encSysPressure;\r\n    uint public encDiaPressure;\r\n    uint public encMap;\r\n    uint public sysPressure;\r\n    uint public diaPressure;\r\n    uint public map;\r\n    string public result;\r\n\r\n    constructor(\r\n        address _patient, uint  _encSysPressure, uint  _encDiaPressure,\r\n        uint  _encMap, uint  _sysPressure,\r\n        uint  _diaPressure, uint  _map,\r\n        string memory  _result\r\n    )public{\r\n        patient = _patient;\r\n        encSysPressure = _encSysPressure;\r\n        encDiaPressure = _encDiaPressure;\r\n        encMap = _encMap;\r\n        sysPressure = _sysPressure;\r\n        diaPressure = _diaPressure;\r\n        map = _map;\r\n        result = _result;\r\n    }\r\n    \r\n    function getDetailsPatient() public returns(\r\n        uint SysPressure, uint DiaPressure,\r\n        uint Map, string memory Result\r\n    ){\r\n        SysPressure = sysPressure;\r\n        DiaPressure = diaPressure;\r\n        Map = map;\r\n        Result = result;\r\n    }\r\n\r\n    function getDetailsResearcher() public returns(\r\n        uint EncSysPressure, uint EncDiaPressure, \r\n        uint EncMap, string memory Result\r\n    ){\r\n        EncSysPressure = encSysPressure;\r\n        EncDiaPressure = encDiaPressure;\r\n        EncMap = encMap;\r\n        Result = result;\r\n    }\r\n}",
  "sourcePath": "C:/Users/roshini/Desktop/Edge-Healthcare/Blockchain/contracts/PatientData.sol",
  "compiler": {
    "name": "solc",
    "version": "0.5.16+commit.9c3226ce.Emscripten.clang"
  },
  "schemaVersion": "3.3.3",
  "updatedAt": "2021-03-10T06:02:28.467Z",
  "devdoc": {
    "methods": {}
  },
  "userdoc": {
    "methods": {}
  }
}